{
  "_format": "hh-sol-artifact-1",
  "contractName": "EasyBet",
  "sourceName": "contracts/EasyBet.sol",
  "abi": [
    {
      "inputs": [
        {
          "internalType": "address",
          "name": "_tokenAddress",
          "type": "address"
        }
      ],
      "stateMutability": "nonpayable",
      "type": "constructor"
    },
    {
      "inputs": [
        {
          "internalType": "address",
          "name": "sender",
          "type": "address"
        },
        {
          "internalType": "uint256",
          "name": "tokenId",
          "type": "uint256"
        },
        {
          "internalType": "address",
          "name": "owner",
          "type": "address"
        }
      ],
      "name": "ERC721IncorrectOwner",
      "type": "error"
    },
    {
      "inputs": [
        {
          "internalType": "address",
          "name": "operator",
          "type": "address"
        },
        {
          "internalType": "uint256",
          "name": "tokenId",
          "type": "uint256"
        }
      ],
      "name": "ERC721InsufficientApproval",
      "type": "error"
    },
    {
      "inputs": [
        {
          "internalType": "address",
          "name": "approver",
          "type": "address"
        }
      ],
      "name": "ERC721InvalidApprover",
      "type": "error"
    },
    {
      "inputs": [
        {
          "internalType": "address",
          "name": "operator",
          "type": "address"
        }
      ],
      "name": "ERC721InvalidOperator",
      "type": "error"
    },
    {
      "inputs": [
        {
          "internalType": "address",
          "name": "owner",
          "type": "address"
        }
      ],
      "name": "ERC721InvalidOwner",
      "type": "error"
    },
    {
      "inputs": [
        {
          "internalType": "address",
          "name": "receiver",
          "type": "address"
        }
      ],
      "name": "ERC721InvalidReceiver",
      "type": "error"
    },
    {
      "inputs": [
        {
          "internalType": "address",
          "name": "sender",
          "type": "address"
        }
      ],
      "name": "ERC721InvalidSender",
      "type": "error"
    },
    {
      "inputs": [
        {
          "internalType": "uint256",
          "name": "tokenId",
          "type": "uint256"
        }
      ],
      "name": "ERC721NonexistentToken",
      "type": "error"
    },
    {
      "inputs": [
        {
          "internalType": "address",
          "name": "owner",
          "type": "address"
        }
      ],
      "name": "OwnableInvalidOwner",
      "type": "error"
    },
    {
      "inputs": [
        {
          "internalType": "address",
          "name": "account",
          "type": "address"
        }
      ],
      "name": "OwnableUnauthorizedAccount",
      "type": "error"
    },
    {
      "anonymous": false,
      "inputs": [
        {
          "indexed": false,
          "internalType": "uint256",
          "name": "activityId",
          "type": "uint256"
        },
        {
          "indexed": false,
          "internalType": "address",
          "name": "creator",
          "type": "address"
        },
        {
          "indexed": false,
          "internalType": "string[]",
          "name": "choices",
          "type": "string[]"
        },
        {
          "indexed": false,
          "internalType": "uint256",
          "name": "endTime",
          "type": "uint256"
        }
      ],
      "name": "ActivityCreated",
      "type": "event"
    },
    {
      "anonymous": false,
      "inputs": [
        {
          "indexed": false,
          "internalType": "uint256",
          "name": "activityId",
          "type": "uint256"
        },
        {
          "indexed": false,
          "internalType": "string",
          "name": "result",
          "type": "string"
        }
      ],
      "name": "ActivitySettled",
      "type": "event"
    },
    {
      "anonymous": false,
      "inputs": [
        {
          "indexed": true,
          "internalType": "address",
          "name": "owner",
          "type": "address"
        },
        {
          "indexed": true,
          "internalType": "address",
          "name": "approved",
          "type": "address"
        },
        {
          "indexed": true,
          "internalType": "uint256",
          "name": "tokenId",
          "type": "uint256"
        }
      ],
      "name": "Approval",
      "type": "event"
    },
    {
      "anonymous": false,
      "inputs": [
        {
          "indexed": true,
          "internalType": "address",
          "name": "owner",
          "type": "address"
        },
        {
          "indexed": true,
          "internalType": "address",
          "name": "operator",
          "type": "address"
        },
        {
          "indexed": false,
          "internalType": "bool",
          "name": "approved",
          "type": "bool"
        }
      ],
      "name": "ApprovalForAll",
      "type": "event"
    },
    {
      "anonymous": false,
      "inputs": [
        {
          "indexed": true,
          "internalType": "address",
          "name": "previousOwner",
          "type": "address"
        },
        {
          "indexed": true,
          "internalType": "address",
          "name": "newOwner",
          "type": "address"
        }
      ],
      "name": "OwnershipTransferred",
      "type": "event"
    },
    {
      "anonymous": false,
      "inputs": [
        {
          "indexed": false,
          "internalType": "uint256",
          "name": "tokenId",
          "type": "uint256"
        },
        {
          "indexed": false,
          "internalType": "uint256",
          "name": "activityId",
          "type": "uint256"
        },
        {
          "indexed": false,
          "internalType": "string",
          "name": "choice",
          "type": "string"
        },
        {
          "indexed": false,
          "internalType": "address",
          "name": "owner",
          "type": "address"
        }
      ],
      "name": "TokenMinted",
      "type": "event"
    },
    {
      "anonymous": false,
      "inputs": [
        {
          "indexed": false,
          "internalType": "uint256",
          "name": "tokenId",
          "type": "uint256"
        },
        {
          "indexed": false,
          "internalType": "address",
          "name": "from",
          "type": "address"
        },
        {
          "indexed": false,
          "internalType": "address",
          "name": "to",
          "type": "address"
        },
        {
          "indexed": false,
          "internalType": "uint256",
          "name": "price",
          "type": "uint256"
        },
        {
          "indexed": false,
          "internalType": "bool",
          "name": "isToken",
          "type": "bool"
        }
      ],
      "name": "TokenSold",
      "type": "event"
    },
    {
      "anonymous": false,
      "inputs": [
        {
          "indexed": true,
          "internalType": "address",
          "name": "from",
          "type": "address"
        },
        {
          "indexed": true,
          "internalType": "address",
          "name": "to",
          "type": "address"
        },
        {
          "indexed": true,
          "internalType": "uint256",
          "name": "tokenId",
          "type": "uint256"
        }
      ],
      "name": "Transfer",
      "type": "event"
    },
    {
      "inputs": [
        {
          "internalType": "uint256",
          "name": "",
          "type": "uint256"
        }
      ],
      "name": "activities",
      "outputs": [
        {
          "internalType": "address",
          "name": "creator",
          "type": "address"
        },
        {
          "internalType": "uint256",
          "name": "poolAmount",
          "type": "uint256"
        },
        {
          "internalType": "uint256",
          "name": "tokenPoolAmount",
          "type": "uint256"
        },
        {
          "internalType": "uint256",
          "name": "endTime",
          "type": "uint256"
        },
        {
          "internalType": "string",
          "name": "result",
          "type": "string"
        },
        {
          "internalType": "bool",
          "name": "isSettled",
          "type": "bool"
        }
      ],
      "stateMutability": "view",
      "type": "function"
    },
    {
      "inputs": [],
      "name": "activityCount",
      "outputs": [
        {
          "internalType": "uint256",
          "name": "",
          "type": "uint256"
        }
      ],
      "stateMutability": "view",
      "type": "function"
    },
    {
      "inputs": [
        {
          "internalType": "address",
          "name": "to",
          "type": "address"
        },
        {
          "internalType": "uint256",
          "name": "tokenId",
          "type": "uint256"
        }
      ],
      "name": "approve",
      "outputs": [],
      "stateMutability": "nonpayable",
      "type": "function"
    },
    {
      "inputs": [
        {
          "internalType": "address",
          "name": "owner",
          "type": "address"
        }
      ],
      "name": "balanceOf",
      "outputs": [
        {
          "internalType": "uint256",
          "name": "",
          "type": "uint256"
        }
      ],
      "stateMutability": "view",
      "type": "function"
    },
    {
      "inputs": [],
      "name": "betToken",
      "outputs": [
        {
          "internalType": "contract EasyBetToken",
          "name": "",
          "type": "address"
        }
      ],
      "stateMutability": "view",
      "type": "function"
    },
    {
      "inputs": [
        {
          "internalType": "uint256",
          "name": "_activityId",
          "type": "uint256"
        },
        {
          "internalType": "string",
          "name": "_choice",
          "type": "string"
        }
      ],
      "name": "buyTicket",
      "outputs": [],
      "stateMutability": "payable",
      "type": "function"
    },
    {
      "inputs": [
        {
          "internalType": "uint256",
          "name": "_tokenId",
          "type": "uint256"
        }
      ],
      "name": "buyTokenETH",
      "outputs": [],
      "stateMutability": "payable",
      "type": "function"
    },
    {
      "inputs": [
        {
          "internalType": "uint256",
          "name": "_tokenId",
          "type": "uint256"
        }
      ],
      "name": "buyTokenToken",
      "outputs": [],
      "stateMutability": "nonpayable",
      "type": "function"
    },
    {
      "inputs": [
        {
          "internalType": "string[]",
          "name": "_choices",
          "type": "string[]"
        },
        {
          "internalType": "uint256",
          "name": "_endTime",
          "type": "uint256"
        }
      ],
      "name": "createActivity",
      "outputs": [],
      "stateMutability": "payable",
      "type": "function"
    },
    {
      "inputs": [
        {
          "internalType": "uint256",
          "name": "tokenId",
          "type": "uint256"
        }
      ],
      "name": "getApproved",
      "outputs": [
        {
          "internalType": "address",
          "name": "",
          "type": "address"
        }
      ],
      "stateMutability": "view",
      "type": "function"
    },
    {
      "inputs": [
        {
          "internalType": "uint256",
          "name": "_activityId",
          "type": "uint256"
        },
        {
          "internalType": "string",
          "name": "_choice",
          "type": "string"
        }
      ],
      "name": "getSellOrders",
      "outputs": [
        {
          "internalType": "uint256[]",
          "name": "",
          "type": "uint256[]"
        },
        {
          "internalType": "uint256[]",
          "name": "",
          "type": "uint256[]"
        },
        {
          "internalType": "uint256[]",
          "name": "",
          "type": "uint256[]"
        }
      ],
      "stateMutability": "view",
      "type": "function"
    },
    {
      "inputs": [
        {
          "internalType": "address",
          "name": "owner",
          "type": "address"
        },
        {
          "internalType": "address",
          "name": "operator",
          "type": "address"
        }
      ],
      "name": "isApprovedForAll",
      "outputs": [
        {
          "internalType": "bool",
          "name": "",
          "type": "bool"
        }
      ],
      "stateMutability": "view",
      "type": "function"
    },
    {
      "inputs": [
        {
          "internalType": "uint256",
          "name": "_activityId",
          "type": "uint256"
        },
        {
          "internalType": "string",
          "name": "_choice",
          "type": "string"
        }
      ],
      "name": "isValidChoice",
      "outputs": [
        {
          "internalType": "bool",
          "name": "",
          "type": "bool"
        }
      ],
      "stateMutability": "view",
      "type": "function"
    },
    {
      "inputs": [
        {
          "internalType": "uint256",
          "name": "_tokenId",
          "type": "uint256"
        },
        {
          "internalType": "uint256",
          "name": "_price",
          "type": "uint256"
        }
      ],
      "name": "listTokenForSaleETH",
      "outputs": [],
      "stateMutability": "nonpayable",
      "type": "function"
    },
    {
      "inputs": [
        {
          "internalType": "uint256",
          "name": "_tokenId",
          "type": "uint256"
        },
        {
          "internalType": "uint256",
          "name": "_price",
          "type": "uint256"
        }
      ],
      "name": "listTokenForSaleToken",
      "outputs": [],
      "stateMutability": "nonpayable",
      "type": "function"
    },
    {
      "inputs": [],
      "name": "name",
      "outputs": [
        {
          "internalType": "string",
          "name": "",
          "type": "string"
        }
      ],
      "stateMutability": "view",
      "type": "function"
    },
    {
      "inputs": [],
      "name": "owner",
      "outputs": [
        {
          "internalType": "address",
          "name": "",
          "type": "address"
        }
      ],
      "stateMutability": "view",
      "type": "function"
    },
    {
      "inputs": [
        {
          "internalType": "uint256",
          "name": "tokenId",
          "type": "uint256"
        }
      ],
      "name": "ownerOf",
      "outputs": [
        {
          "internalType": "address",
          "name": "",
          "type": "address"
        }
      ],
      "stateMutability": "view",
      "type": "function"
    },
    {
      "inputs": [],
      "name": "renounceOwnership",
      "outputs": [],
      "stateMutability": "nonpayable",
      "type": "function"
    },
    {
      "inputs": [
        {
          "internalType": "address",
          "name": "from",
          "type": "address"
        },
        {
          "internalType": "address",
          "name": "to",
          "type": "address"
        },
        {
          "internalType": "uint256",
          "name": "tokenId",
          "type": "uint256"
        }
      ],
      "name": "safeTransferFrom",
      "outputs": [],
      "stateMutability": "nonpayable",
      "type": "function"
    },
    {
      "inputs": [
        {
          "internalType": "address",
          "name": "from",
          "type": "address"
        },
        {
          "internalType": "address",
          "name": "to",
          "type": "address"
        },
        {
          "internalType": "uint256",
          "name": "tokenId",
          "type": "uint256"
        },
        {
          "internalType": "bytes",
          "name": "data",
          "type": "bytes"
        }
      ],
      "name": "safeTransferFrom",
      "outputs": [],
      "stateMutability": "nonpayable",
      "type": "function"
    },
    {
      "inputs": [
        {
          "internalType": "uint256",
          "name": "",
          "type": "uint256"
        }
      ],
      "name": "sellOrdersETH",
      "outputs": [
        {
          "internalType": "uint256",
          "name": "",
          "type": "uint256"
        }
      ],
      "stateMutability": "view",
      "type": "function"
    },
    {
      "inputs": [
        {
          "internalType": "uint256",
          "name": "",
          "type": "uint256"
        }
      ],
      "name": "sellOrdersToken",
      "outputs": [
        {
          "internalType": "uint256",
          "name": "",
          "type": "uint256"
        }
      ],
      "stateMutability": "view",
      "type": "function"
    },
    {
      "inputs": [
        {
          "internalType": "address",
          "name": "operator",
          "type": "address"
        },
        {
          "internalType": "bool",
          "name": "approved",
          "type": "bool"
        }
      ],
      "name": "setApprovalForAll",
      "outputs": [],
      "stateMutability": "nonpayable",
      "type": "function"
    },
    {
      "inputs": [
        {
          "internalType": "bool",
          "name": "_useToken",
          "type": "bool"
        }
      ],
      "name": "setUseToken",
      "outputs": [],
      "stateMutability": "nonpayable",
      "type": "function"
    },
    {
      "inputs": [
        {
          "internalType": "uint256",
          "name": "_activityId",
          "type": "uint256"
        },
        {
          "internalType": "string",
          "name": "_result",
          "type": "string"
        }
      ],
      "name": "settleActivity",
      "outputs": [],
      "stateMutability": "nonpayable",
      "type": "function"
    },
    {
      "inputs": [
        {
          "internalType": "bytes4",
          "name": "interfaceId",
          "type": "bytes4"
        }
      ],
      "name": "supportsInterface",
      "outputs": [
        {
          "internalType": "bool",
          "name": "",
          "type": "bool"
        }
      ],
      "stateMutability": "view",
      "type": "function"
    },
    {
      "inputs": [],
      "name": "symbol",
      "outputs": [
        {
          "internalType": "string",
          "name": "",
          "type": "string"
        }
      ],
      "stateMutability": "view",
      "type": "function"
    },
    {
      "inputs": [],
      "name": "tokenCount",
      "outputs": [
        {
          "internalType": "uint256",
          "name": "",
          "type": "uint256"
        }
      ],
      "stateMutability": "view",
      "type": "function"
    },
    {
      "inputs": [
        {
          "internalType": "uint256",
          "name": "",
          "type": "uint256"
        }
      ],
      "name": "tokenInfo",
      "outputs": [
        {
          "internalType": "uint256",
          "name": "activityId",
          "type": "uint256"
        },
        {
          "internalType": "string",
          "name": "choice",
          "type": "string"
        },
        {
          "internalType": "uint256",
          "name": "mintTime",
          "type": "uint256"
        }
      ],
      "stateMutability": "view",
      "type": "function"
    },
    {
      "inputs": [
        {
          "internalType": "uint256",
          "name": "tokenId",
          "type": "uint256"
        }
      ],
      "name": "tokenURI",
      "outputs": [
        {
          "internalType": "string",
          "name": "",
          "type": "string"
        }
      ],
      "stateMutability": "view",
      "type": "function"
    },
    {
      "inputs": [
        {
          "internalType": "address",
          "name": "from",
          "type": "address"
        },
        {
          "internalType": "address",
          "name": "to",
          "type": "address"
        },
        {
          "internalType": "uint256",
          "name": "tokenId",
          "type": "uint256"
        }
      ],
      "name": "transferFrom",
      "outputs": [],
      "stateMutability": "nonpayable",
      "type": "function"
    },
    {
      "inputs": [
        {
          "internalType": "address",
          "name": "newOwner",
          "type": "address"
        }
      ],
      "name": "transferOwnership",
      "outputs": [],
      "stateMutability": "nonpayable",
      "type": "function"
    },
    {
      "inputs": [],
      "name": "useToken",
      "outputs": [
        {
          "internalType": "bool",
          "name": "",
          "type": "bool"
        }
      ],
      "stateMutability": "view",
      "type": "function"
    },
    {
      "inputs": [
        {
          "internalType": "uint256",
          "name": "amount",
          "type": "uint256"
        }
      ],
      "name": "withdrawTokens",
      "outputs": [],
      "stateMutability": "nonpayable",
      "type": "function"
    }
  ],
  "bytecode": "0x60806040523480156200001157600080fd5b5060405162005251380380620052518339818101604052810190620000379190620002e4565b336040518060400160405280600c81526020017f45617379426574546f6b656e00000000000000000000000000000000000000008152506040518060400160405280600381526020017f45425400000000000000000000000000000000000000000000000000000000008152508160009081620000b5919062000590565b508060019081620000c7919062000590565b505050600073ffffffffffffffffffffffffffffffffffffffff168173ffffffffffffffffffffffffffffffffffffffff16036200013f5760006040517f1e4fbdf700000000000000000000000000000000000000000000000000000000815260040162000136919062000688565b60405180910390fd5b6200015081620001b460201b60201c565b5080600760006101000a81548173ffffffffffffffffffffffffffffffffffffffff021916908373ffffffffffffffffffffffffffffffffffffffff1602179055506000600e60006101000a81548160ff02191690831515021790555050620006a5565b6000600660009054906101000a900473ffffffffffffffffffffffffffffffffffffffff16905081600660006101000a81548173ffffffffffffffffffffffffffffffffffffffff021916908373ffffffffffffffffffffffffffffffffffffffff1602179055508173ffffffffffffffffffffffffffffffffffffffff168173ffffffffffffffffffffffffffffffffffffffff167f8be0079c531659141344cd1fd0a4f28419497f9722a3daafe3b4186f6b6457e060405160405180910390a35050565b600080fd5b600073ffffffffffffffffffffffffffffffffffffffff82169050919050565b6000620002ac826200027f565b9050919050565b620002be816200029f565b8114620002ca57600080fd5b50565b600081519050620002de81620002b3565b92915050565b600060208284031215620002fd57620002fc6200027a565b5b60006200030d84828501620002cd565b91505092915050565b600081519050919050565b7f4e487b7100000000000000000000000000000000000000000000000000000000600052604160045260246000fd5b7f4e487b7100000000000000000000000000000000000000000000000000000000600052602260045260246000fd5b600060028204905060018216806200039857607f821691505b602082108103620003ae57620003ad62000350565b5b50919050565b60008190508160005260206000209050919050565b60006020601f8301049050919050565b600082821b905092915050565b600060088302620004187fffffffffffffffffffffffffffffffffffffffffffffffffffffffffffffffff82620003d9565b620004248683620003d9565b95508019841693508086168417925050509392505050565b6000819050919050565b6000819050919050565b6000620004716200046b62000465846200043c565b62000446565b6200043c565b9050919050565b6000819050919050565b6200048d8362000450565b620004a56200049c8262000478565b848454620003e6565b825550505050565b600090565b620004bc620004ad565b620004c981848462000482565b505050565b5b81811015620004f157620004e5600082620004b2565b600181019050620004cf565b5050565b601f82111562000540576200050a81620003b4565b6200051584620003c9565b8101602085101562000525578190505b6200053d6200053485620003c9565b830182620004ce565b50505b505050565b600082821c905092915050565b6000620005656000198460080262000545565b1980831691505092915050565b600062000580838362000552565b9150826002028217905092915050565b6200059b8262000316565b67ffffffffffffffff811115620005b757620005b662000321565b5b620005c382546200037f565b620005d0828285620004f5565b600060209050601f831160018114620006085760008415620005f3578287015190505b620005ff858262000572565b8655506200066f565b601f1984166200061886620003b4565b60005b8281101562000642578489015182556001820191506020850194506020810190506200061b565b868310156200066257848901516200065e601f89168262000552565b8355505b6001600288020188555050505b505050505050565b62000682816200029f565b82525050565b60006020820190506200069f600083018462000677565b92915050565b614b9c80620006b56000396000f3fe6080604052600436106102045760003560e01c80638da5cb5b11610118578063c2c975fa116100a0578063da77ca4b1161006f578063da77ca4b14610777578063e6240deb146107b6578063e985e9c5146107e1578063f2fde38b1461081e578063f88245181461084757610204565b8063c2c975fa14610681578063c652850d146106be578063c87b56dd146106fb578063cc33c8751461073857610204565b80639afb93cb116100e75780639afb93cb146105ab5780639f181b5e146105c7578063a22cb465146105f2578063abc528291461061b578063b88d4fde1461065857610204565b80638da5cb5b14610510578063955648da1461053b57806395d89b411461056457806398ff2a811461058f57610204565b8063315a095d1161019b57806370a082311161016a57806370a082311461043f578063715018a61461047c5780637602bd631461049357806378691f16146104bc5780638497d149146104e757610204565b8063315a095d1461039457806342842e0e146103bd57806348deb296146103e65780636352211e1461040257610204565b80630d1657e8116101d75780630d1657e8146102d757806317a94343146103195780631a2591361461034257806323b872dd1461036b57610204565b806301ffc9a71461020957806306fdde0314610246578063081812fc14610271578063095ea7b3146102ae575b600080fd5b34801561021557600080fd5b50610230600480360381019061022b91906132d2565b610872565b60405161023d919061331a565b60405180910390f35b34801561025257600080fd5b5061025b610954565b60405161026891906133c5565b60405180910390f35b34801561027d57600080fd5b506102986004803603810190610293919061341d565b6109e6565b6040516102a5919061348b565b60405180910390f35b3480156102ba57600080fd5b506102d560048036038101906102d091906134d2565b610a02565b005b3480156102e357600080fd5b506102fe60048036038101906102f9919061341d565b610a18565b60405161031096959493929190613521565b60405180910390f35b34801561032557600080fd5b50610340600480360381019061033b919061341d565b610b09565b005b34801561034e57600080fd5b5061036960048036038101906103649190613589565b610cb9565b005b34801561037757600080fd5b50610392600480360381019061038d91906135c9565b610d4b565b005b3480156103a057600080fd5b506103bb60048036038101906103b6919061341d565b610e4d565b005b3480156103c957600080fd5b506103e460048036038101906103df91906135c9565b610f00565b005b61040060048036038101906103fb919061341d565b610f20565b005b34801561040e57600080fd5b506104296004803603810190610424919061341d565b611078565b604051610436919061348b565b60405180910390f35b34801561044b57600080fd5b506104666004803603810190610461919061361c565b61108a565b6040516104739190613649565b60405180910390f35b34801561048857600080fd5b50610491611144565b005b34801561049f57600080fd5b506104ba60048036038101906104b59190613690565b611158565b005b3480156104c857600080fd5b506104d161117d565b6040516104de919061371c565b60405180910390f35b3480156104f357600080fd5b5061050e6004803603810190610509919061386c565b6111a3565b005b34801561051c57600080fd5b50610525611430565b604051610532919061348b565b60405180910390f35b34801561054757600080fd5b50610562600480360381019061055d9190613589565b61145a565b005b34801561057057600080fd5b506105796114ec565b60405161058691906133c5565b60405180910390f35b6105a960048036038101906105a491906139ae565b61157e565b005b6105c560048036038101906105c0919061386c565b61176d565b005b3480156105d357600080fd5b506105dc611b04565b6040516105e99190613649565b60405180910390f35b3480156105fe57600080fd5b5061061960048036038101906106149190613a0a565b611b0a565b005b34801561062757600080fd5b50610642600480360381019061063d919061386c565b611b20565b60405161064f919061331a565b60405180910390f35b34801561066457600080fd5b5061067f600480360381019061067a9190613aeb565b611bb7565b005b34801561068d57600080fd5b506106a860048036038101906106a3919061341d565b611bdc565b6040516106b59190613649565b60405180910390f35b3480156106ca57600080fd5b506106e560048036038101906106e0919061341d565b611bf4565b6040516106f29190613649565b60405180910390f35b34801561070757600080fd5b50610722600480360381019061071d919061341d565b611c0c565b60405161072f91906133c5565b60405180910390f35b34801561074457600080fd5b5061075f600480360381019061075a919061341d565b611c75565b60405161076e93929190613b6e565b60405180910390f35b34801561078357600080fd5b5061079e6004803603810190610799919061386c565b611d27565b6040516107ad93929190613c6a565b60405180910390f35b3480156107c257600080fd5b506107cb612064565b6040516107d89190613649565b60405180910390f35b3480156107ed57600080fd5b5061080860048036038101906108039190613cb6565b61206a565b604051610815919061331a565b60405180910390f35b34801561082a57600080fd5b506108456004803603810190610840919061361c565b6120fe565b005b34801561085357600080fd5b5061085c612184565b604051610869919061331a565b60405180910390f35b60007f80ac58cd000000000000000000000000000000000000000000000000000000007bffffffffffffffffffffffffffffffffffffffffffffffffffffffff1916827bffffffffffffffffffffffffffffffffffffffffffffffffffffffff1916148061093d57507f5b5e139f000000000000000000000000000000000000000000000000000000007bffffffffffffffffffffffffffffffffffffffffffffffffffffffff1916827bffffffffffffffffffffffffffffffffffffffffffffffffffffffff1916145b8061094d575061094c82612197565b5b9050919050565b60606000805461096390613d25565b80601f016020809104026020016040519081016040528092919081815260200182805461098f90613d25565b80156109dc5780601f106109b1576101008083540402835291602001916109dc565b820191906000526020600020905b8154815290600101906020018083116109bf57829003601f168201915b5050505050905090565b60006109f182612201565b506109fb82612289565b9050919050565b610a148282610a0f6122c6565b6122ce565b5050565b600a6020528060005260406000206000915090508060000160009054906101000a900473ffffffffffffffffffffffffffffffffffffffff1690806001015490806002015490806004015490806005018054610a7390613d25565b80601f0160208091040260200160405190810160405280929190818152602001828054610a9f90613d25565b8015610aec5780601f10610ac157610100808354040283529160200191610aec565b820191906000526020600020905b815481529060010190602001808311610acf57829003601f168201915b5050505050908060060160009054906101000a900460ff16905086565b60006009600083815260200190815260200160002054905060008111610b64576040517f08c379a0000000000000000000000000000000000000000000000000000000008152600401610b5b90613da2565b60405180910390fd5b6000610b6f83611078565b9050600760009054906101000a900473ffffffffffffffffffffffffffffffffffffffff1673ffffffffffffffffffffffffffffffffffffffff166323b872dd3383856040518463ffffffff1660e01b8152600401610bd093929190613dc2565b6020604051808303816000875af1158015610bef573d6000803e3d6000fd5b505050506040513d601f19601f82011682018060405250810190610c139190613e0e565b610c52576040517f08c379a0000000000000000000000000000000000000000000000000000000008152600401610c4990613e87565b60405180910390fd5b610c5d8133856122e0565b60096000848152602001908152602001600020600090557f5ba39d7696c8afc0248710a4054818fbe831b042883cf8a26ec8ee0c61413cd2838233856001604051610cac959493929190613ea7565b60405180910390a1505050565b3373ffffffffffffffffffffffffffffffffffffffff16610cd983611078565b73ffffffffffffffffffffffffffffffffffffffff1614610d2f576040517f08c379a0000000000000000000000000000000000000000000000000000000008152600401610d2690613f46565b60405180910390fd5b8060086000848152602001908152602001600020819055505050565b600073ffffffffffffffffffffffffffffffffffffffff168273ffffffffffffffffffffffffffffffffffffffff1603610dbd5760006040517f64a0ae92000000000000000000000000000000000000000000000000000000008152600401610db4919061348b565b60405180910390fd5b6000610dd18383610dcc6122c6565b61244d565b90508373ffffffffffffffffffffffffffffffffffffffff168173ffffffffffffffffffffffffffffffffffffffff1614610e47578382826040517f64283d7b000000000000000000000000000000000000000000000000000000008152600401610e3e93929190613f66565b60405180910390fd5b50505050565b610e55612667565b600760009054906101000a900473ffffffffffffffffffffffffffffffffffffffff1673ffffffffffffffffffffffffffffffffffffffff1663a9059cbb610e9b611430565b836040518363ffffffff1660e01b8152600401610eb9929190613f9d565b6020604051808303816000875af1158015610ed8573d6000803e3d6000fd5b505050506040513d601f19601f82011682018060405250810190610efc9190613e0e565b5050565b610f1b83838360405180602001604052806000815250611bb7565b505050565b60006008600083815260200190815260200160002054905060008111610f7b576040517f08c379a0000000000000000000000000000000000000000000000000000000008152600401610f7290613da2565b60405180910390fd5b803414610fbd576040517f08c379a0000000000000000000000000000000000000000000000000000000008152600401610fb490614012565b60405180910390fd5b6000610fc883611078565b9050610fd58133856122e0565b8073ffffffffffffffffffffffffffffffffffffffff166108fc839081150290604051600060405180830381858888f1935050505015801561101b573d6000803e3d6000fd5b5060086000848152602001908152602001600020600090557f5ba39d7696c8afc0248710a4054818fbe831b042883cf8a26ec8ee0c61413cd283823385600060405161106b959493929190613ea7565b60405180910390a1505050565b600061108382612201565b9050919050565b60008073ffffffffffffffffffffffffffffffffffffffff168273ffffffffffffffffffffffffffffffffffffffff16036110fd5760006040517f89c62b640000000000000000000000000000000000000000000000000000000081526004016110f4919061348b565b60405180910390fd5b600360008373ffffffffffffffffffffffffffffffffffffffff1673ffffffffffffffffffffffffffffffffffffffff168152602001908152602001600020549050919050565b61114c612667565b61115660006126ee565b565b611160612667565b80600e60006101000a81548160ff02191690831515021790555050565b600760009054906101000a900473ffffffffffffffffffffffffffffffffffffffff1681565b6111ab612667565b6000600a600084815260200190815260200160002090508060060160009054906101000a900460ff1615611214576040517f08c379a000000000000000000000000000000000000000000000000000000000815260040161120b9061407e565b60405180910390fd5b806004015442101561125b576040517f08c379a0000000000000000000000000000000000000000000000000000000008152600401611252906140ea565b60405180910390fd5b6112658383611b20565b6112a4576040517f08c379a000000000000000000000000000000000000000000000000000000000815260040161129b90614156565b60405180910390fd5b818160050190816112b59190614318565b5060018160060160006101000a81548160ff021916908315150217905550600081600801836040516112e79190614426565b908152602001604051809103902054905060008111156113f1576000818360010154611313919061449b565b905060005b83600701805490508110156113ee57600084600701828154811061133f5761133e6144cc565b5b906000526020600020015490508580519060200120600b6000838152602001908152602001600020600101604051611377919061459e565b6040518091039020036113da57600061138f82611078565b90508073ffffffffffffffffffffffffffffffffffffffff166108fc859081150290604051600060405180830381858888f193505050501580156113d7573d6000803e3d6000fd5b50505b5080806113e6906145b5565b915050611318565b50505b7f5589ab4d8dc607f9e386bd12ef2fe07b7dd5551537841d092037bb594339811284846040516114229291906145fd565b60405180910390a150505050565b6000600660009054906101000a900473ffffffffffffffffffffffffffffffffffffffff16905090565b3373ffffffffffffffffffffffffffffffffffffffff1661147a83611078565b73ffffffffffffffffffffffffffffffffffffffff16146114d0576040517f08c379a00000000000000000000000000000000000000000000000000000000081526004016114c790613f46565b60405180910390fd5b8060096000848152602001908152602001600020819055505050565b6060600180546114fb90613d25565b80601f016020809104026020016040519081016040528092919081815260200182805461152790613d25565b80156115745780601f1061154957610100808354040283529160200191611574565b820191906000526020600020905b81548152906001019060200180831161155757829003601f168201915b5050505050905090565b611586612667565b6002825110156115cb576040517f08c379a00000000000000000000000000000000000000000000000000000000081526004016115c290614679565b60405180910390fd5b42811161160d576040517f08c379a0000000000000000000000000000000000000000000000000000000008152600401611604906146e5565b60405180910390fd5b600c6000815480929190611620906145b5565b91905055506000600a6000600c5481526020019081526020016000209050338160000160006101000a81548173ffffffffffffffffffffffffffffffffffffffff021916908373ffffffffffffffffffffffffffffffffffffffff160217905550348160010181905550828160030190805190602001906116a292919061318c565b5081816004018190555060008160060160006101000a81548160ff02191690831515021790555060005b8351811015611728576000826008018583815181106116ee576116ed6144cc565b5b60200260200101516040516117039190614426565b9081526020016040518091039020819055508080611720906145b5565b9150506116cc565b507f4c551159c0e3bf8836782d3292ea09224ff3c712f6511b4832cafe7b2f8cd6e3600c543385856040516117609493929190614811565b60405180910390a1505050565b6000600a600084815260200190815260200160002090508060060160009054906101000a900460ff16156117d6576040517f08c379a00000000000000000000000000000000000000000000000000000000081526004016117cd906148a9565b60405180910390fd5b8060040154421061181c576040517f08c379a000000000000000000000000000000000000000000000000000000000815260040161181390614915565b60405180910390fd5b6118268383611b20565b611865576040517f08c379a000000000000000000000000000000000000000000000000000000000815260040161185c90614981565b60405180910390fd5b6000600e60009054906101000a900460ff1661188857662386f26fc1000061188b565b60005b66ffffffffffffff169050600e60009054906101000a900460ff161561199857600760009054906101000a900473ffffffffffffffffffffffffffffffffffffffff1673ffffffffffffffffffffffffffffffffffffffff166323b872dd3330662386f26fc100006040518463ffffffff1660e01b8152600401611911939291906149dc565b6020604051808303816000875af1158015611930573d6000803e3d6000fd5b505050506040513d601f19601f820116820180604052508101906119549190613e0e565b611993576040517f08c379a000000000000000000000000000000000000000000000000000000000815260040161198a90613e87565b60405180910390fd5b6119db565b8034146119da576040517f08c379a00000000000000000000000000000000000000000000000000000000081526004016119d190614012565b60405180910390fd5b5b600d60008154809291906119ee906145b5565b91905055506119ff33600d546127b4565b604051806060016040528085815260200184815260200142815250600b6000600d548152602001908152602001600020600082015181600001556020820151816001019081611a4e9190614318565b506040820151816002015590505081600701600d5490806001815401808255809150506001900390600052602060002001600090919091909150558160080183604051611a9b9190614426565b90815260200160405180910390206000815480929190611aba906145b5565b91905055507f9cda3dc7cf836c335a56887d2d344e6d2a69234c65fd0118ad17b723094da0fa600d54858533604051611af69493929190614a13565b60405180910390a150505050565b600d5481565b611b1c611b156122c6565b83836128ad565b5050565b600080600a6000858152602001908152602001600020905060005b8160030180549050811015611baa578380519060200120826003018281548110611b6857611b676144cc565b5b90600052602060002001604051611b7f919061459e565b604051809103902003611b9757600192505050611bb1565b8080611ba2906145b5565b915050611b3b565b5060009150505b92915050565b611bc2848484610d4b565b611bd6611bcd6122c6565b85858585612a1c565b50505050565b60086020528060005260406000206000915090505481565b60096020528060005260406000206000915090505481565b6060611c1782612201565b506000611c22612bcd565b90506000815111611c425760405180602001604052806000815250611c6d565b80611c4c84612be4565b604051602001611c5d929190614a5f565b6040516020818303038152906040525b915050919050565b600b602052806000526040600020600091509050806000015490806001018054611c9e90613d25565b80601f0160208091040260200160405190810160405280929190818152602001828054611cca90613d25565b8015611d175780601f10611cec57610100808354040283529160200191611d17565b820191906000526020600020905b815481529060010190602001808311611cfa57829003601f168201915b5050505050908060020154905083565b60608060606000600a600087815260200190815260200160002090506000805b8260070180549050811015611e11576000836007018281548110611d6e57611d6d6144cc565b5b906000526020600020015490508780519060200120600b6000838152602001908152602001600020600101604051611da6919061459e565b604051809103902003611dfd57600060086000838152602001908152602001600020541180611de8575060006009600083815260200190815260200160002054115b15611dfc578280611df8906145b5565b9350505b5b508080611e09906145b5565b915050611d47565b5060008167ffffffffffffffff811115611e2e57611e2d613741565b5b604051908082528060200260200182016040528015611e5c5781602001602082028036833780820191505090505b50905060008267ffffffffffffffff811115611e7b57611e7a613741565b5b604051908082528060200260200182016040528015611ea95781602001602082028036833780820191505090505b50905060008367ffffffffffffffff811115611ec857611ec7613741565b5b604051908082528060200260200182016040528015611ef65781602001602082028036833780820191505090505b5090506000805b866007018054905081101561204d576000876007018281548110611f2457611f236144cc565b5b906000526020600020015490508b80519060200120600b6000838152602001908152602001600020600101604051611f5c919061459e565b60405180910390200361203957600060086000838152602001908152602001600020541180611f9e575060006009600083815260200190815260200160002054115b156120385780868481518110611fb757611fb66144cc565b5b6020026020010181815250506008600082815260200190815260200160002054858481518110611fea57611fe96144cc565b5b602002602001018181525050600960008281526020019081526020016000205484848151811061201d5761201c6144cc565b5b6020026020010181815250508280612034906145b5565b9350505b5b508080612045906145b5565b915050611efd565b508383839850985098505050505050509250925092565b600c5481565b6000600560008473ffffffffffffffffffffffffffffffffffffffff1673ffffffffffffffffffffffffffffffffffffffff16815260200190815260200160002060008373ffffffffffffffffffffffffffffffffffffffff1673ffffffffffffffffffffffffffffffffffffffff16815260200190815260200160002060009054906101000a900460ff16905092915050565b612106612667565b600073ffffffffffffffffffffffffffffffffffffffff168173ffffffffffffffffffffffffffffffffffffffff16036121785760006040517f1e4fbdf700000000000000000000000000000000000000000000000000000000815260040161216f919061348b565b60405180910390fd5b612181816126ee565b50565b600e60009054906101000a900460ff1681565b60007f01ffc9a7000000000000000000000000000000000000000000000000000000007bffffffffffffffffffffffffffffffffffffffffffffffffffffffff1916827bffffffffffffffffffffffffffffffffffffffffffffffffffffffff1916149050919050565b60008061220d83612cb2565b9050600073ffffffffffffffffffffffffffffffffffffffff168173ffffffffffffffffffffffffffffffffffffffff160361228057826040517f7e2732890000000000000000000000000000000000000000000000000000000081526004016122779190613649565b60405180910390fd5b80915050919050565b60006004600083815260200190815260200160002060009054906101000a900473ffffffffffffffffffffffffffffffffffffffff169050919050565b600033905090565b6122db8383836001612cef565b505050565b600073ffffffffffffffffffffffffffffffffffffffff168273ffffffffffffffffffffffffffffffffffffffff16036123525760006040517f64a0ae92000000000000000000000000000000000000000000000000000000008152600401612349919061348b565b60405180910390fd5b60006123608383600061244d565b9050600073ffffffffffffffffffffffffffffffffffffffff168173ffffffffffffffffffffffffffffffffffffffff16036123d357816040517f7e2732890000000000000000000000000000000000000000000000000000000081526004016123ca9190613649565b60405180910390fd5b8373ffffffffffffffffffffffffffffffffffffffff168173ffffffffffffffffffffffffffffffffffffffff1614612447578382826040517f64283d7b00000000000000000000000000000000000000000000000000000000815260040161243e93929190613f66565b60405180910390fd5b50505050565b60008061245984612cb2565b9050600073ffffffffffffffffffffffffffffffffffffffff168373ffffffffffffffffffffffffffffffffffffffff161461249b5761249a818486612eb4565b5b600073ffffffffffffffffffffffffffffffffffffffff168173ffffffffffffffffffffffffffffffffffffffff161461252c576124dd600085600080612cef565b6001600360008373ffffffffffffffffffffffffffffffffffffffff1673ffffffffffffffffffffffffffffffffffffffff168152602001908152602001600020600082825403925050819055505b600073ffffffffffffffffffffffffffffffffffffffff168573ffffffffffffffffffffffffffffffffffffffff16146125af576001600360008773ffffffffffffffffffffffffffffffffffffffff1673ffffffffffffffffffffffffffffffffffffffff168152602001908152602001600020600082825401925050819055505b846002600086815260200190815260200160002060006101000a81548173ffffffffffffffffffffffffffffffffffffffff021916908373ffffffffffffffffffffffffffffffffffffffff160217905550838573ffffffffffffffffffffffffffffffffffffffff168273ffffffffffffffffffffffffffffffffffffffff167fddf252ad1be2c89b69c2b068fc378daa952ba7f163c4a11628f55a4df523b3ef60405160405180910390a4809150509392505050565b61266f6122c6565b73ffffffffffffffffffffffffffffffffffffffff1661268d611430565b73ffffffffffffffffffffffffffffffffffffffff16146126ec576126b06122c6565b6040517f118cdaa70000000000000000000000000000000000000000000000000000000081526004016126e3919061348b565b60405180910390fd5b565b6000600660009054906101000a900473ffffffffffffffffffffffffffffffffffffffff16905081600660006101000a81548173ffffffffffffffffffffffffffffffffffffffff021916908373ffffffffffffffffffffffffffffffffffffffff1602179055508173ffffffffffffffffffffffffffffffffffffffff168173ffffffffffffffffffffffffffffffffffffffff167f8be0079c531659141344cd1fd0a4f28419497f9722a3daafe3b4186f6b6457e060405160405180910390a35050565b600073ffffffffffffffffffffffffffffffffffffffff168273ffffffffffffffffffffffffffffffffffffffff16036128265760006040517f64a0ae9200000000000000000000000000000000000000000000000000000000815260040161281d919061348b565b60405180910390fd5b60006128348383600061244d565b9050600073ffffffffffffffffffffffffffffffffffffffff168173ffffffffffffffffffffffffffffffffffffffff16146128a85760006040517f73c6ac6e00000000000000000000000000000000000000000000000000000000815260040161289f919061348b565b60405180910390fd5b505050565b600073ffffffffffffffffffffffffffffffffffffffff168273ffffffffffffffffffffffffffffffffffffffff160361291e57816040517f5b08ba18000000000000000000000000000000000000000000000000000000008152600401612915919061348b565b60405180910390fd5b80600560008573ffffffffffffffffffffffffffffffffffffffff1673ffffffffffffffffffffffffffffffffffffffff16815260200190815260200160002060008473ffffffffffffffffffffffffffffffffffffffff1673ffffffffffffffffffffffffffffffffffffffff16815260200190815260200160002060006101000a81548160ff0219169083151502179055508173ffffffffffffffffffffffffffffffffffffffff168373ffffffffffffffffffffffffffffffffffffffff167f17307eab39ab6107e8899845ad3d59bd9653f200f220920489ca2b5937696c3183604051612a0f919061331a565b60405180910390a3505050565b60008373ffffffffffffffffffffffffffffffffffffffff163b1115612bc6578273ffffffffffffffffffffffffffffffffffffffff1663150b7a02868685856040518563ffffffff1660e01b8152600401612a7b9493929190614ad8565b6020604051808303816000875af1925050508015612ab757506040513d601f19601f82011682018060405250810190612ab49190614b39565b60015b612b3b573d8060008114612ae7576040519150601f19603f3d011682016040523d82523d6000602084013e612aec565b606091505b506000815103612b3357836040517f64a0ae92000000000000000000000000000000000000000000000000000000008152600401612b2a919061348b565b60405180910390fd5b805160208201fd5b63150b7a0260e01b7bffffffffffffffffffffffffffffffffffffffffffffffffffffffff1916817bffffffffffffffffffffffffffffffffffffffffffffffffffffffff191614612bc457836040517f64a0ae92000000000000000000000000000000000000000000000000000000008152600401612bbb919061348b565b60405180910390fd5b505b5050505050565b606060405180602001604052806000815250905090565b606060006001612bf384612f78565b01905060008167ffffffffffffffff811115612c1257612c11613741565b5b6040519080825280601f01601f191660200182016040528015612c445781602001600182028036833780820191505090505b509050600082602083010190505b600115612ca7578080600190039150507f3031323334353637383961626364656600000000000000000000000000000000600a86061a8153600a8581612c9b57612c9a61443d565b5b04945060008503612c52575b819350505050919050565b60006002600083815260200190815260200160002060009054906101000a900473ffffffffffffffffffffffffffffffffffffffff169050919050565b8080612d285750600073ffffffffffffffffffffffffffffffffffffffff168273ffffffffffffffffffffffffffffffffffffffff1614155b15612e5c576000612d3884612201565b9050600073ffffffffffffffffffffffffffffffffffffffff168373ffffffffffffffffffffffffffffffffffffffff1614158015612da357508273ffffffffffffffffffffffffffffffffffffffff168173ffffffffffffffffffffffffffffffffffffffff1614155b8015612db65750612db4818461206a565b155b15612df857826040517fa9fbf51f000000000000000000000000000000000000000000000000000000008152600401612def919061348b565b60405180910390fd5b8115612e5a57838573ffffffffffffffffffffffffffffffffffffffff168273ffffffffffffffffffffffffffffffffffffffff167f8c5be1e5ebec7d5bd14f71427d1e84f3dd0314c0f7b2291e5b200ac8c7c3b92560405160405180910390a45b505b836004600085815260200190815260200160002060006101000a81548173ffffffffffffffffffffffffffffffffffffffff021916908373ffffffffffffffffffffffffffffffffffffffff16021790555050505050565b612ebf8383836130cb565b612f7357600073ffffffffffffffffffffffffffffffffffffffff168373ffffffffffffffffffffffffffffffffffffffff1603612f3457806040517f7e273289000000000000000000000000000000000000000000000000000000008152600401612f2b9190613649565b60405180910390fd5b81816040517f177e802f000000000000000000000000000000000000000000000000000000008152600401612f6a929190613f9d565b60405180910390fd5b505050565b600080600090507a184f03e93ff9f4daa797ed6e38ed64bf6a1f0100000000000000008310612fd6577a184f03e93ff9f4daa797ed6e38ed64bf6a1f0100000000000000008381612fcc57612fcb61443d565b5b0492506040810190505b6d04ee2d6d415b85acef81000000008310613013576d04ee2d6d415b85acef810000000083816130095761300861443d565b5b0492506020810190505b662386f26fc10000831061304257662386f26fc1000083816130385761303761443d565b5b0492506010810190505b6305f5e100831061306b576305f5e10083816130615761306061443d565b5b0492506008810190505b61271083106130905761271083816130865761308561443d565b5b0492506004810190505b606483106130b357606483816130a9576130a861443d565b5b0492506002810190505b600a83106130c2576001810190505b80915050919050565b60008073ffffffffffffffffffffffffffffffffffffffff168373ffffffffffffffffffffffffffffffffffffffff161415801561318357508273ffffffffffffffffffffffffffffffffffffffff168473ffffffffffffffffffffffffffffffffffffffff1614806131445750613143848461206a565b5b8061318257508273ffffffffffffffffffffffffffffffffffffffff1661316a83612289565b73ffffffffffffffffffffffffffffffffffffffff16145b5b90509392505050565b8280548282559060005260206000209081019282156131d4579160200282015b828111156131d35782518290816131c39190614318565b50916020019190600101906131ac565b5b5090506131e191906131e5565b5090565b5b8082111561320557600081816131fc9190613209565b506001016131e6565b5090565b50805461321590613d25565b6000825580601f106132275750613246565b601f0160209004906000526020600020908101906132459190613249565b5b50565b5b8082111561326257600081600090555060010161324a565b5090565b6000604051905090565b600080fd5b600080fd5b60007fffffffff0000000000000000000000000000000000000000000000000000000082169050919050565b6132af8161327a565b81146132ba57600080fd5b50565b6000813590506132cc816132a6565b92915050565b6000602082840312156132e8576132e7613270565b5b60006132f6848285016132bd565b91505092915050565b60008115159050919050565b613314816132ff565b82525050565b600060208201905061332f600083018461330b565b92915050565b600081519050919050565b600082825260208201905092915050565b60005b8381101561336f578082015181840152602081019050613354565b60008484015250505050565b6000601f19601f8301169050919050565b600061339782613335565b6133a18185613340565b93506133b1818560208601613351565b6133ba8161337b565b840191505092915050565b600060208201905081810360008301526133df818461338c565b905092915050565b6000819050919050565b6133fa816133e7565b811461340557600080fd5b50565b600081359050613417816133f1565b92915050565b60006020828403121561343357613432613270565b5b600061344184828501613408565b91505092915050565b600073ffffffffffffffffffffffffffffffffffffffff82169050919050565b60006134758261344a565b9050919050565b6134858161346a565b82525050565b60006020820190506134a0600083018461347c565b92915050565b6134af8161346a565b81146134ba57600080fd5b50565b6000813590506134cc816134a6565b92915050565b600080604083850312156134e9576134e8613270565b5b60006134f7858286016134bd565b925050602061350885828601613408565b9150509250929050565b61351b816133e7565b82525050565b600060c082019050613536600083018961347c565b6135436020830188613512565b6135506040830187613512565b61355d6060830186613512565b818103608083015261356f818561338c565b905061357e60a083018461330b565b979650505050505050565b600080604083850312156135a05761359f613270565b5b60006135ae85828601613408565b92505060206135bf85828601613408565b9150509250929050565b6000806000606084860312156135e2576135e1613270565b5b60006135f0868287016134bd565b9350506020613601868287016134bd565b925050604061361286828701613408565b9150509250925092565b60006020828403121561363257613631613270565b5b6000613640848285016134bd565b91505092915050565b600060208201905061365e6000830184613512565b92915050565b61366d816132ff565b811461367857600080fd5b50565b60008135905061368a81613664565b92915050565b6000602082840312156136a6576136a5613270565b5b60006136b48482850161367b565b91505092915050565b6000819050919050565b60006136e26136dd6136d88461344a565b6136bd565b61344a565b9050919050565b60006136f4826136c7565b9050919050565b6000613706826136e9565b9050919050565b613716816136fb565b82525050565b6000602082019050613731600083018461370d565b92915050565b600080fd5b600080fd5b7f4e487b7100000000000000000000000000000000000000000000000000000000600052604160045260246000fd5b6137798261337b565b810181811067ffffffffffffffff8211171561379857613797613741565b5b80604052505050565b60006137ab613266565b90506137b78282613770565b919050565b600067ffffffffffffffff8211156137d7576137d6613741565b5b6137e08261337b565b9050602081019050919050565b82818337600083830152505050565b600061380f61380a846137bc565b6137a1565b90508281526020810184848401111561382b5761382a61373c565b5b6138368482856137ed565b509392505050565b600082601f83011261385357613852613737565b5b81356138638482602086016137fc565b91505092915050565b6000806040838503121561388357613882613270565b5b600061389185828601613408565b925050602083013567ffffffffffffffff8111156138b2576138b1613275565b5b6138be8582860161383e565b9150509250929050565b600067ffffffffffffffff8211156138e3576138e2613741565b5b602082029050602081019050919050565b600080fd5b600061390c613907846138c8565b6137a1565b9050808382526020820190506020840283018581111561392f5761392e6138f4565b5b835b8181101561397657803567ffffffffffffffff81111561395457613953613737565b5b808601613961898261383e565b85526020850194505050602081019050613931565b5050509392505050565b600082601f83011261399557613994613737565b5b81356139a58482602086016138f9565b91505092915050565b600080604083850312156139c5576139c4613270565b5b600083013567ffffffffffffffff8111156139e3576139e2613275565b5b6139ef85828601613980565b9250506020613a0085828601613408565b9150509250929050565b60008060408385031215613a2157613a20613270565b5b6000613a2f858286016134bd565b9250506020613a408582860161367b565b9150509250929050565b600067ffffffffffffffff821115613a6557613a64613741565b5b613a6e8261337b565b9050602081019050919050565b6000613a8e613a8984613a4a565b6137a1565b905082815260208101848484011115613aaa57613aa961373c565b5b613ab58482856137ed565b509392505050565b600082601f830112613ad257613ad1613737565b5b8135613ae2848260208601613a7b565b91505092915050565b60008060008060808587031215613b0557613b04613270565b5b6000613b13878288016134bd565b9450506020613b24878288016134bd565b9350506040613b3587828801613408565b925050606085013567ffffffffffffffff811115613b5657613b55613275565b5b613b6287828801613abd565b91505092959194509250565b6000606082019050613b836000830186613512565b8181036020830152613b95818561338c565b9050613ba46040830184613512565b949350505050565b600081519050919050565b600082825260208201905092915050565b6000819050602082019050919050565b613be1816133e7565b82525050565b6000613bf38383613bd8565b60208301905092915050565b6000602082019050919050565b6000613c1782613bac565b613c218185613bb7565b9350613c2c83613bc8565b8060005b83811015613c5d578151613c448882613be7565b9750613c4f83613bff565b925050600181019050613c30565b5085935050505092915050565b60006060820190508181036000830152613c848186613c0c565b90508181036020830152613c988185613c0c565b90508181036040830152613cac8184613c0c565b9050949350505050565b60008060408385031215613ccd57613ccc613270565b5b6000613cdb858286016134bd565b9250506020613cec858286016134bd565b9150509250929050565b7f4e487b7100000000000000000000000000000000000000000000000000000000600052602260045260246000fd5b60006002820490506001821680613d3d57607f821691505b602082108103613d5057613d4f613cf6565b5b50919050565b7f546f6b656e206e6f7420666f722073616c650000000000000000000000000000600082015250565b6000613d8c601283613340565b9150613d9782613d56565b602082019050919050565b60006020820190508181036000830152613dbb81613d7f565b9050919050565b6000606082019050613dd7600083018661347c565b613de4602083018561347c565b613df16040830184613512565b949350505050565b600081519050613e0881613664565b92915050565b600060208284031215613e2457613e23613270565b5b6000613e3284828501613df9565b91505092915050565b7f546f6b656e207472616e73666572206661696c65640000000000000000000000600082015250565b6000613e71601583613340565b9150613e7c82613e3b565b602082019050919050565b60006020820190508181036000830152613ea081613e64565b9050919050565b600060a082019050613ebc6000830188613512565b613ec9602083018761347c565b613ed6604083018661347c565b613ee36060830185613512565b613ef0608083018461330b565b9695505050505050565b7f4e6f7420746f6b656e206f776e65720000000000000000000000000000000000600082015250565b6000613f30600f83613340565b9150613f3b82613efa565b602082019050919050565b60006020820190508181036000830152613f5f81613f23565b9050919050565b6000606082019050613f7b600083018661347c565b613f886020830185613512565b613f95604083018461347c565b949350505050565b6000604082019050613fb2600083018561347c565b613fbf6020830184613512565b9392505050565b7f496e636f7272656374204554482073656e740000000000000000000000000000600082015250565b6000613ffc601283613340565b915061400782613fc6565b602082019050919050565b6000602082019050818103600083015261402b81613fef565b9050919050565b7f416c726561647920736574746c65640000000000000000000000000000000000600082015250565b6000614068600f83613340565b915061407382614032565b602082019050919050565b600060208201905081810360008301526140978161405b565b9050919050565b7f4163746976697479206e6f7420656e6465640000000000000000000000000000600082015250565b60006140d4601283613340565b91506140df8261409e565b602082019050919050565b60006020820190508181036000830152614103816140c7565b9050919050565b7f496e76616c696420726573756c74000000000000000000000000000000000000600082015250565b6000614140600e83613340565b915061414b8261410a565b602082019050919050565b6000602082019050818103600083015261416f81614133565b9050919050565b60008190508160005260206000209050919050565b60006020601f8301049050919050565b600082821b905092915050565b6000600883026141d87fffffffffffffffffffffffffffffffffffffffffffffffffffffffffffffffff8261419b565b6141e2868361419b565b95508019841693508086168417925050509392505050565b600061421561421061420b846133e7565b6136bd565b6133e7565b9050919050565b6000819050919050565b61422f836141fa565b61424361423b8261421c565b8484546141a8565b825550505050565b600090565b61425861424b565b614263818484614226565b505050565b5b818110156142875761427c600082614250565b600181019050614269565b5050565b601f8211156142cc5761429d81614176565b6142a68461418b565b810160208510156142b5578190505b6142c96142c18561418b565b830182614268565b50505b505050565b600082821c905092915050565b60006142ef600019846008026142d1565b1980831691505092915050565b600061430883836142de565b9150826002028217905092915050565b61432182613335565b67ffffffffffffffff81111561433a57614339613741565b5b6143448254613d25565b61434f82828561428b565b600060209050601f8311600181146143825760008415614370578287015190505b61437a85826142fc565b8655506143e2565b601f19841661439086614176565b60005b828110156143b857848901518255600182019150602085019450602081019050614393565b868310156143d557848901516143d1601f8916826142de565b8355505b6001600288020188555050505b505050505050565b600081905092915050565b600061440082613335565b61440a81856143ea565b935061441a818560208601613351565b80840191505092915050565b600061443282846143f5565b915081905092915050565b7f4e487b7100000000000000000000000000000000000000000000000000000000600052601260045260246000fd5b7f4e487b7100000000000000000000000000000000000000000000000000000000600052601160045260246000fd5b60006144a6826133e7565b91506144b1836133e7565b9250826144c1576144c061443d565b5b828204905092915050565b7f4e487b7100000000000000000000000000000000000000000000000000000000600052603260045260246000fd5b600081905092915050565b60008190508160005260206000209050919050565b6000815461452881613d25565b61453281866144fb565b9450600182166000811461454d576001811461456257614595565b60ff1983168652811515820286019350614595565b61456b85614506565b60005b8381101561458d5781548189015260018201915060208101905061456e565b838801955050505b50505092915050565b60006145aa828461451b565b915081905092915050565b60006145c0826133e7565b91507fffffffffffffffffffffffffffffffffffffffffffffffffffffffffffffffff82036145f2576145f161446c565b5b600182019050919050565b60006040820190506146126000830185613512565b8181036020830152614624818461338c565b90509392505050565b7f4174206c6561737420322063686f696365732072657175697265640000000000600082015250565b6000614663601b83613340565b915061466e8261462d565b602082019050919050565b6000602082019050818103600083015261469281614656565b9050919050565b7f456e642074696d65206d75737420626520696e20667574757265000000000000600082015250565b60006146cf601a83613340565b91506146da82614699565b602082019050919050565b600060208201905081810360008301526146fe816146c2565b9050919050565b600081519050919050565b600082825260208201905092915050565b6000819050602082019050919050565b600082825260208201905092915050565b600061474d82613335565b6147578185614731565b9350614767818560208601613351565b6147708161337b565b840191505092915050565b60006147878383614742565b905092915050565b6000602082019050919050565b60006147a782614705565b6147b18185614710565b9350836020820285016147c385614721565b8060005b858110156147ff57848403895281516147e0858261477b565b94506147eb8361478f565b925060208a019950506001810190506147c7565b50829750879550505050505092915050565b60006080820190506148266000830187613512565b614833602083018661347c565b8181036040830152614845818561479c565b90506148546060830184613512565b95945050505050565b7f416374697669747920736574746c656400000000000000000000000000000000600082015250565b6000614893601083613340565b915061489e8261485d565b602082019050919050565b600060208201905081810360008301526148c281614886565b9050919050565b7f416374697669747920656e646564000000000000000000000000000000000000600082015250565b60006148ff600e83613340565b915061490a826148c9565b602082019050919050565b6000602082019050818103600083015261492e816148f2565b9050919050565b7f496e76616c69642063686f696365000000000000000000000000000000000000600082015250565b600061496b600e83613340565b915061497682614935565b602082019050919050565b6000602082019050818103600083015261499a8161495e565b9050919050565b6000819050919050565b60006149c66149c16149bc846149a1565b6136bd565b6133e7565b9050919050565b6149d6816149ab565b82525050565b60006060820190506149f1600083018661347c565b6149fe602083018561347c565b614a0b60408301846149cd565b949350505050565b6000608082019050614a286000830187613512565b614a356020830186613512565b8181036040830152614a47818561338c565b9050614a56606083018461347c565b95945050505050565b6000614a6b82856143f5565b9150614a7782846143f5565b91508190509392505050565b600081519050919050565b600082825260208201905092915050565b6000614aaa82614a83565b614ab48185614a8e565b9350614ac4818560208601613351565b614acd8161337b565b840191505092915050565b6000608082019050614aed600083018761347c565b614afa602083018661347c565b614b076040830185613512565b8181036060830152614b198184614a9f565b905095945050505050565b600081519050614b33816132a6565b92915050565b600060208284031215614b4f57614b4e613270565b5b6000614b5d84828501614b24565b9150509291505056fea2646970667358221220a2bccf39cf56c9243251bceeca5d7d0eb85eafd539c98d4b66c17bd7c545514e64736f6c63430008140033",
  "linkReferences": {},
  "deployedLinkReferences": {}
}